S0120000494F545F746573745F332E7372656375
S113000047C2000066C2000064C2000062C2000071
S113001060C200005EC200005CC200005AC2000060
S113002058C2000056C2000054C2000052C2000070
S113003035C700004EC200004CC200004AC2000096
S113004048C2000046C2000044C2000042C2000090
S113005040C200003EC200003CC200003AC20000A0
S113006038C200000C9484200C94D62032C20000C4
S113007030C200002EC200002CC200002AC20000C0
S113008028C2000026C2000024C2000022C20000D0
S11300900C941A210C946C211CC200000C940424AE
S11300A018C2000016C2000014C2000012C20000F0
S11300B010C200000EC200000CC200000AC2000000
S11300C008C2000006C2000004C200000C94B02163
S11300D00C940222FEC100000C9446220C94982237
S11300E0F8C10000BF01BF01BF01F90101021702FD
S11300F0BF01BF01F9010102262496249624962407
S1130100962496249624962426249624962496248B
S11301109624962496249624282496249624962479
S113012096249624962496249624962496249624FB
S11301309624962496249624282496249624962459
S113014096249624962496249624962496249624DB
S113015096249624962496249224962496249624CF
S113016096249624962496245D24962496249624F4
S113017096249624962496249624962496249624AB
S113018096249624962496245124962496249624E0
S1130190962496249624962475240AE118E10F2EB9
S11301A0FAE4EF2EF8E1FF2EF02D80911918882340
S11301B011F10FB6F8940F92D8011796ED91FC91B6
S11301C01897C085D185CE010296CDD480910D18A3
S11301D0815080930D1880911918815080931918BB
S11301E00F900FBE8B8D9C8D1AD4CE0118D48091A4
S11301F019188111DECFF7018081823008F088D58B
S11302000E94E015D2CFCF93DF93CDB7DEB76097CE
S11302100FB6F894DEBF0FBECDBFCE0101969A870C
S11302208987812C912CA12CB12C69847A84E0914A
S11302308218F09183188081882309F40FC1078004
S1130240F085E02D20803180428053800E94140F7D
S1130250CE0101960E944A156B877C878D879E8705
S11302608981811165C08B859C85AD85BE8582158C
S11302709305A405B50508F444C00E94FD0FE09160
S11302808218F09183180780F085E02DA085B18550
S1130290B88BAF87CD01029666D4EF85F88987893C
S11302A082FF21C04685578560897189420D531D9F
S11302B0641D751D720161010B851C852D853E85AC
S11302C0CF010E945A14882399F0C82CD92CEA2C07
S11302D0FB2C00E010E0A201910160E08F85988979
S11302E00E94EC1405C08E7FAF85B88957968C9315
S11302F0AF85B8895496ED91FC915597CD01199528
S11303009FC020E0B201A1018B859C85AD85BE858F
S1130310481B590B6A0B7B0B80917E1890917F18B8
S11303200E941D0A0E94FD0F81118AC0F1D488C069
S11303300E94FD0F85C0898188230CF481C04E8002
S11303405F80D2011C968D919C911D97892B19F089
S1130350C201029608D4CE0108960E944A158B0168
S11303609C01E9810E2E000CFF0BEA30F10508F028
S113037067C08827EE58FF4F8F4F0C949C26F201DC
S113038087898160878BCA80DB80EC80FD8046850D
S11303905785608971894C0D5D1D6E1D7F1DC201DD
S11303A00E945A14882309F44BC0D2015496ED914B
S11303B0FC915597C2011995F201878982FF40C0CB
S11303C04A815B816C817D8186859785A089B1890D
S11303D09A01AB01280F391F4A1F5B1FC82CD92C67
S11303E0EA2CFB2C00E010E060E0C2010E94EC1457
S11303F027C0D20157968C9157978E7F57968C932E
S11304001FC0F20187898160878B4A815B816C817F
S11304107D8146875787608B718B400F511F621F08
S1130420731F68017901C2010E945A1409C0F201C4
S1130430878981FD03C0C201F2D202C08E7F878BFF
S1130440282D392D4A2D5B2D662D772D80917E1810
S113045090917F185BD781116ECFE9CE0E94140F63
S1130460CE0101960E944A156B877C878D879E87F3
S1130470898181115DCFE0918018F091811880818C
S113048021E0811120E0282C392C4A2C5B2C3ACF16
S113049011241FBECFEFD1E2DEBFCDBF00E00CBF01
S11304A017E0A0E0B2E0E4ECF6E500E00BBF02C028
S11304B007900D92A63DB107D9F72AE1A6EDB7E062
S11304C001C01D92A532B207E1F70E94FF160C94F9
S11304D0602B96CD9093F8198093F719089501EA4B
S11304E012E0CBEBD2E00E942D1F8093F6198823F3
S11304F021F08EE692E00E9455288091F8198F939E
S11305008091F7198F931F930F93DF93CF930E94DA
S1130510422868EC70E080E090E00E94D7100F90D1
S11305200F900F900F900F900F90DDCFEF92FF92EE
S11305300F9382E090E0BAD19093F8198093F71961
S11305406AE672E083E00E94FF1EE12CF12C03E0D6
S113055020E030E048E851E061EC72E08FE692E0A0
S11305600E94B90D0F91FF90EF9008958091F719B3
S11305709091F8190895CF93DF9300D01F92CDB7CF
S1130580DEB781E00E94451B62E070E080E090E00D
S11305900E94D71080E00E94451B66E970E080E06D
S11305A090E00E94D7100E94FB1A81E00E94531928
S11305B00E94591B0E94D61D9F938F938DEC92E04D
S11305C09F938F930E9442280E94D71C0E94D61D9D
S11305D09F938F9380EE92E09F938F930E94422883
S11305E08CEE97E00E946B1B0E94D61D0CEE17E068
S11305F01F930F939F938F9389EF92E09F938F9311
S11306000E944228C8010E94871B0E94D61D9F9306
S11306108F931F930F938DE093E09F938F930E948A
S11306204228A80162E273E083E493E00E94B51DCE
S11306300E94D61D9F938F931F930F9382E293E0A2
S11306409F938F9383E493E09F938F9384E593E048
S11306509F938F930E9442280E94BA1B0E94D61D2A
S11306609F938F938AE893E09F938F930E944228ED
S11306700FB6F894DEBF0FBECDBF81E00E94B41C5C
S11306800E94D61D9F938F9389E993E09F938F9344
S11306900E94422884EF91E00E94BF1C0E94D61D54
S11306A09F938F9381E08F9384EF8F938AEB93E0F2
S11306B09F938F930E9442280FB6F894DEBF0FBE1B
S11306C0CDBF0AE010E00F2EFAEDEF2EF3E0FF2E7F
S11306D0F02D80E00E94C01BD82E0E94D61D9F934F
S11306E08F931F930F93FF92EF920E9442280F90D3
S11306F00F900F900F900F900F90F8E0DF1609F411
S113070046C080E00E94BF1966E371E080E090E09B
S11307100E94D71001501109E1F632C0F9D2FECF80
S113072044E457E060E070E0CE0101960E94791045
S11307300E941016B82EA92E0E944D16D82EC92E2E
S113074015DFF801A282B382C482D582968387839F
S1130750B80180E00E94E91B83E00E94D119B8012E
S113076080E00E94E91B0E94D61D9F938F93FF9205
S1130770EF920E9442280F900F900F900F90D0CFCD
S113078081E00E94B01980E00E947A19C7CF81E00D
S11307900E94A119E6EDF7E086E0818382E0808380
S11307A00E941A0F69837A838B839C8306ED17E07A
S11307B00F2EFAEFEF2EF3E0FF2EF02DB1CFEF92D4
S11307C0FF920F93E12CF12C082F20E030E048E851
S11307D051E06FE074E08BEB92E00E94B90D0F9151
S11307E0FF90EF900895E7E0F1E080818F608083CF
S11307F00895E8E0F1E09081907F908390818F707C
S1130800982B90830895E8E0F1E08081807F8083D5
S11308100895CF93DF93DC01E8E5F8E001C0F90126
S1130820208131812A173B07D0F382819381AF0164
S1130830480F591FA417B50749F412964D915C91BE
S11308401397840F951F93838283DF0112968D91F2
S11308509C911397ED01C80FD91F2C173D07D9F4AC
S11308602091560830915708C217D30781F02A8186
S11308703B81820F931F13969C938E931297C08192
S1130880D1818881998111969C938E9307C011968A
S1130890DC93CE9303C011963C932E93AE17BF07FF
S11308A011F0B183A083DF91CF910895CF92DF92AD
S11308B0EF92FF920F931F93CF93DF93EC010E946B
S11308C0140F8091560890915708892B41F5E8E55B
S11308D0F8E0ACE5B8E0B183A08313821282E8EFBC
S11308E0F7E1F0935708E0935608138212821182BD
S11308F010828CE99FE013969C938E931297ED934C
S1130900FC939093530880935208909355088093D6
S1130910540880E090E89093510880935008E09048
S11309205008F0905108C7018C239D23892B09F0AE
S113093066C0209709F466C0AE014C5F5F4F09F4AE
S11309405EC000915408109155080417150708F467
S113095056C0C0915808D0915908E8E5F8E002C0A3
S1130960FE01E9012A813B812417350728F42881F7
S1130970398121153105A1F78091560890915708C6
S1130980C817D907E1F1C080D18084E0C80ED11C1A
S113099088819981918380832A813B81241B350B33
S11309A02930310548F0CE01840F951FFC013383B3
S11309B022835B834A832DDF8A819B81081B190B69
S11309C0109355080093540820915208309153080D
S11309D00217130720F41093530800935208E82ACF
S11309E0F92AFB82EA82198218820E94FD0FC1143F
S11309F0D10459F40E94E115C12CD12C06C00E94E7
S1130A00FD0FF8CF0E94FD0FF5CFC601DF91CF9106
S1130A101F910F91FF90EF90DF90CF900895CF93A7
S1130A20DF93009751F1FC01349722813381409187
S1130A30500850915108B90164237523672BE9F0DC
S1130A4060817181672BC9F4EF014095509524238F
S1130A503523338322830E94140F2091540830914C
S1130A6055088A819B81820F931F90935508809328
S1130A705408CE01CEDE0E94FD0FDF91CF91089580
S1130A80FC010396928381834FEF5FEFBA014383A6
S1130A9054836583768390878783928781871082C6
S1130AA00895FC01138612860895CF93DF939C0169
S1130AB0FB01DC011196CD91DC911297D583C4839F
S1130AC08E819F81978386838E819F81DC01159619
S1130AD07C936E9314977F836E8333872287F90107
S1130AE080818F5F8083DF91CF9108950F931F934F
S1130AF0CF93DF93EB01088119812A813B810F3F5A
S1130B004FEF14072407340721F4FC01A185B285B3
S1130B1011C0DC01139601C0DF011496ED91FC9124
S1130B201597408151816281738104171507260747
S1130B30370790F71496ED91FC911597FD83EC839C
S1130B40D783C683BF83AE831596DC93CE93149765
S1130B509B878A87FC0120812F5F2083DF91CF91BF
S1130B601F910F910895CF93DF93FC01A285B38564
S1130B70C481D581868197819F838E83C681D781E5
S1130B80848195819D838C8311968D919C9112977C
S1130B90E817F90731F48681978112969C938E9316
S1130BA01197138612868C9181508C938C91DF91CE
S1130BB0CF91089531E1FC013083319722E2208303
S1130BC03197A3E3A0833197608331977083319782
S1130BD0108231971082319760E8608331971082D8
S1130BE03197108231971082319762E06083319798
S1130BF063E06083319764E06083319765E06083EC
S1130C00319766E06083319767E06083319768E0ED
S1130C106083319769E06083319760E16083319745
S1130C203083319732E13083319733E13083319728
S1130C3034E13083319735E13083319736E13083C5
S1130C40319737E13083319738E13083319739E197
S1130C503083319730E23083319731E230833197FA
S1130C602083319723E22083319740833197508347
S1130C70319726E22083319727E22083319728E2B7
S1130C802083319729E22083319720E32083319711
S1130C9021E3208389970895A89590EC88E10FB605
S1130CA0F894A895809360000FBE90936000A09183
S1130CB07618B0917718CD91CDBFDD91DEBFFF914D
S1130CC0EF91DF91CF91BF91AF919F918F917F91E0
S1130CD06F915F914F913F912F911F910F91FF90D1
S1130CE0EF90DF90CF90BF90AF909F908F907F90C8
S1130CF06F905F904F903F902F901F900F900CBE7D
S1130D000F900BBE0F900FBE0F90089581E00895D1
S1130D100F920FB6F8940F920BB60F920CB60F9277
S1130D201F9211242F923F924F925F926F927F9263
S1130D308F929F92AF92BF92CF92DF92EF92FF92E7
S1130D400F931F932F933F934F935F936F937F93CF
S1130D508F939F93AF93BF93CF93DF93EF93FF93BF
S1130D60A0917618B09177180DB60D920EB60D922B
S1130D700E94F010A0917618B0917718CD91CDBF54
S1130D80DD91DEBFFF91EF91DF91CF91BF91AF91E4
S1130D909F918F917F916F915F914F913F912F918F
S1130DA01F910F91FF90EF90DF90CF90BF90AF9085
S1130DB09F908F907F906F905F904F903F902F9077
S1130DC01F900F900CBE0F900BBE0F900FBE0F9094
S1130DD008950F920FB6F8940F920BB60F920CB6BB
S1130DE00F921F9211242F923F924F925F926F9213
S1130DF07F928F929F92AF92BF92CF92DF92EF92A7
S1130E00FF920F931F932F933F934F935F936F938F
S1130E107F938F939F93AF93BF93CF93DF93EF937E
S1130E20FF93A0917618B09177180DB60D920EB677
S1130E300D9213BE0E94280F81110E94F010A09100
S1130E407618B0917718CD91CDBFDD91DEBFFF91BB
S1130E50EF91DF91CF91BF91AF919F918F917F914E
S1130E606F915F914F913F912F911F910F91FF903F
S1130E70EF90DF90CF90BF90AF909F908F907F9036
S1130E806F905F904F903F902F901F900F900CBEEB
S1130E900F900BBE0F900FBE0F9008959ADF189518
S1130EA00FB6F8940F92FC01968D0F900FBE81E05F
S1130EB0911180E008950F931F93CF93DF93EC017A
S1130EC0042F1E8D48A141110CC088819981892B62
S1130ED009F042C08C819D810E947B121D821C827C
S1130EE042C0011117C050E08A819B810E94E32710
S1130EF028A18A819B81820F911D9B838A832C81E7
S1130F003D818217930750F1888199819B838A835D
S1130F1080E029C050E08E819F810E94E32788A150
S1130F2090E09195819591092E813F81280F391F79
S1130F303F832E83488159812417350730F42C814F
S1130F403D81820F931F9F838E83023049F41123C6
S1130F5049F0115080E007C080E005C080E003C084
S1130F6080E001C080E01F5F1E8FDF91CF911F9151
S1130F700F910895FC0140A14423A9F050E026817B
S1130F803781240F351F3783268384819581281761
S1130F90390720F08081918197838683CB01668114
S1130FA077810C94E3270895EF92FF920F931F9398
S1130FB0CF938C010FB6F8940F92FC01C2A11C16BA
S1130FC0ACF48389811106C011C0F80183898111B1
S1130FD005C00CC07801F3E1EF0EF11CC7010E94BB
S1130FE0A61181110E946412C15079F78FEFF801A4
S1130FF082A30F900FBE0FB6F8940F92C1A11C16D6
S1131000ACF48085811106C011C0F801808581117E
S113101005C00CC07801F8E0EF0EF11CC7010E9476
S1131020A61181110E946412C15079F78FEFF80163
S113103081A30F900FBECF911F910F91FF90EF905E
S11310400895CF93DF93EC010FB6F8940F92E881E3
S1131050F9818F8D28A190E030E0829FA001839FC9
S1131060500D929F500D11244E0F5F1F5D834C83D2
S11310701E8EFB83EA830197829FA001839F500DFC
S1131080929F500D1124CF01840F951F9F838E834F
S11310908FEF89A38AA361110BC08885882371F01F
S11310A0CE0108960E94A611882341F031DE06C0C5
S11310B0CE010896E5DCCE014396E2DC0F900FBE2C
S11310C081E0DF91CF910895FF920F931F93CF9307
S11310D0DF93082F162FF42E6623B9F0869FC001E4
S11310E011248596E3DBEC01009741F414C00F8FC3
S11310F018A361E0CE01A5DFFCA20DC085969983FB
S11311008883F5CFD983C883F2CF85E290E0CEDB24
S1131110EC01892BB9F7CE01DF91CF911F910F918B
S1131120FF9008959F92AF92BF92CF92DF92EF9279
S1131130FF920F931F93CF93DF93CDB7DEB7299719
S11311400FB6F894DEBF0FBECDBF7C015B012E83CA
S11311503F834887598710E0992493946C0188E071
S1131160C80ED11C0FB6F8940F92F701968D878D97
S1131170981710F00230B1F4402FB501C7019BDE7F
S1131180F7019389992341F0C70143960E94A61160
S1131190882321F0BDDD02C08111BADD0F900FBE9E
S11311A081E04EC08E819F81A885B985892B8A2BC9
S11311B08B2B21F40F900FBE80E042C0111105C0AB
S11311C0CE0101960E94FE11192D0F900FBE2CD650
S11311D00FB6F8940F92F70181A18F3F09F411A281
S11311E0F70182A18F3F09F412A20F900FBEBE0136
S11311F06A5F7F4FCE0101960E940F1281111CC0BD
S11312000FB6F8940F92F701968D878D0F900FBE4D
S113121098130EC04E815F8168857985C6010E944E
S11312206F11C701C1DEE9D681119CCF71DD9ACF60
S1131230C701BADEE2D696CFC701B6DEDED680E0BD
S113124029960FB6F894DEBF0FBECDBFDF91CF91C4
S11312501F910F91FF90EF90DF90CF90BF90AF90D0
S11312609F9008950F93CF93DF93482F60E081E020
S11312702BDFEC01009761F01D821C821982188219
S11312801E8200E020E030E0A90160E070E04ADF67
S1131290CE01DF91CF910F910895EF92FF920F93BA
S11312A01F93CF93DF938A01FC01568D378D53171B
S11312B010F02230E9F4422F7801EC011AA1FBDD91
S11312C01F3F81F48B898823A9F0CE0143960E94A5
S11312D0A611882389F0E114F10481F081E0F7017B
S11312E080830DC0FF24F394F10EFAA281E007C0BD
S11312F080E005C081E003C081E001C081E0DF91AE
S1131300CF911F910F91FF90EF9008959F92AF920C
S1131310BF92CF92DF92EF92FF920F931F93CF93DE
S1131320DF93CDB7DEB729970FB6F894DEBF0FBEB3
S1131330CDBF8C015B012E833F8348875987E12C05
S1131340992493946C0183E1C80ED11C0FB6F894D0
S11313500F92F801F68CFF2091F0B501C8010ADE66
S1131360FA94F801F68E8085882329F0C80108963E
S1131370EDD78111CDDC0F900FBE81E04CC08E8182
S11313809F81A885B985892B8A2B8B2B21F40F90FB
S11313900FBE80E040C0E11005C0CE0101960E945E
S11313A0FE11E92C0F900FBE3FD50FB6F8940F92A3
S11313B0F80181A18F3F09F411A2F80182A18F3FA6
S11313C009F412A20F900FBEBE016A5F7F4FCE01D7
S11313D001960E940F12811115C0C80161DD882396
S11313E069F04E815F8168857985C60178D7C80127
S11313F0DBDD03D68111AACF8BDCA8CFC801D4DDF5
S1131400FCD5A4CFC801D0DDF8D5C80149DD8823B7
S113141009F49CCF80E029960FB6F894DEBF0FBE86
S1131420CDBFDF91CF911F910F91FF90EF90DF908F
S1131430CF90BF90AF909F900895CF93DF93EC012E
S11314400FB6F8940F9289A18F3F09F419A28AA1CB
S11314508F3F09F41AA20F900FBE8E8D811103C025
S1131460CE01439653D7CE019FDDDF91CF910895EE
S1131470FC014481558122813381240F351F8081F1
S11314809181B901681B790BCB016417750710F0C2
S1131490841B950B0895AF92BF92CF92DF92EF9287
S11314A0FF920F931F93CF93DF936C015B017A013B
S11314B0FC01C281D381048115810C1B1D0B4017D3
S11314C0510708F48A01F60184859585A801B501C0
S11314D08C0F9D1F0E94E3270E151F0558F4A701CA
S11314E0401B510BB501600F711FF6018485958572
S11314F00E94E327CE018E0D9F1DF60124813581C4
S11315008217930710F0821B930BF6019383828357
S1131510C701DF91CF911F910F91FF90EF90DF9062
S1131520CF90BF90AF900895CF92DF92EF92FF9249
S11315300F931F93CF93DF931F921F92CDB7DEB704
S11315405A83498321153105C9F06B017C01FC01E3
S1131550868580FD08C0CA012417350708F4C9012F
S11315609A83898311C02017310758F042E050E074
S1131570BE016F5F7F4FC7018EDF06C080E090E041
S113158008C080E090E005C049815A81B601C701D6
S113159082DF0F900F90DF91CF911F910F91FF90F9
S11315A0EF90DF90CF900895AF92BF92CF92DF92E9
S11315B0EF92FF920F931F93CF93DF937C015B0114
S11315C0E9014217530708F4EA01209779F1F7017A
S11315D000811181C480D580C01AD10ACC15DD05E3
S11315E008F46E01F70164857585600F711FA6010B
S11315F0C5010E94E327CC16DD0658F4AE014C1950
S11316005D09F70164857585C5018C0D9D1D0E94DA
S1131610E3270C0F1D1FF701848195810817190713
S113162010F0081B190BF70111830083CE01DF9121
S1131630CF911F910F91FF90EF90DF90CF90BF90CB
S1131640AF900895EF92FF921F93CF93DF93EB0136
S113165011E0413009F010E0209711F4C1E0D0E02E
S11316607C012FEFE21AF20A419620D9009781F00B
S113167020E1FC0111922A95E9F79C01205F3F4F7C
S1131680FC0135872487F582E482D783C6831687D5
S1131690DF91CF911F91FF90EF900895CF93DF9347
S11316A0FC0127850FB6F8940F9280859185892BCC
S11316B0D1F482859385892BC1F48685468157812F
S11316C064817581A485B58590E1EF0119929A959D
S11316D0E9F7B587A4877583648357834683868730
S11316E0278781E003C080E001C080E00F900FBE37
S11316F0DF91CF910895FC0124813581808191810E
S113170042815381820F931F0197841B950B82178B
S1131710930710F0821B930B08952F923F924F92E0
S11317205F926F927F928F929F92AF92BF92CF926D
S1131730DF92EF92FF920F931F93CF93DF93CDB776
S1131740DEB729970FB6F894DEBF0FBECDBF5C019C
S11317501B012A010E831F8328873987FC01868594
S113176080FF05C03A01F2E06F0E711C01C03A011E
S11317708E819F81A885B985892B8A2B8B2B09F4AF
S113178034C0CE01019624D60FB6F8940F92C50149
S1131790B2DF4C018615970518F580E090E00E94B1
S11317A0461496D6F501938782870F900FBECE809C
S11317B0DF80E884F98400E010E020E030E0A90153
S11317C060E070E0CB01D7D6F50113861286BE0126
S11317D06A5F7F4FCE01019622D68823A9F202C008
S11317E00F900FBE8114910419F4C50184DF4C01DC
S11317F083019401A201B101C50196DE7C01892B0C
S1131800D9F0C50135DEF5012681378182179307AA
S113181098F00AD3F50180859185892B61F0808544
S1131820918500E010E020E040E050E0BA012DD7BF
S1131830F50111861086E1D3C70129960FB6F894F5
S1131840DEBF0FBECDBFDF91CF911F910F91FF90EF
S1131850EF90DF90CF90BF90AF909F908F907F904C
S11318606F905F904F903F902F900895AF92BF92EA
S1131870CF92DF92EF92FF920F931F93CF93DF9358
S1131880EC015B016A0179018E8580FF04C08A0145
S11318900E5F1F4F01C08A01CE012DDF9C01A601FE
S11318A0B501CE0141DE6C01892BB1F0CE01E0DD42
S11318B02E813F818217930778F088859985892B3B
S11318C059F08885998500E010E020E040E050E080
S11318D0BA0153D719861886C601DF91CF911F919B
S11318E00F91FF90EF90DF90CF90BF90AF9008954D
S11318F04F925F926F927F928F929F92AF92BF921C
S1131900CF92DF92EF92FF920F931F93CF93DF93C7
S11319101F921F92CDB7DEB75C012B013A0168011B
S11319207901FC01868580FD03C0812C912C04C0C3
S11319306894882481F8912CC114D104E104F10441
S113194029F10FB6F8940F92C50192DD8C01881627
S1131950990638F080E090E099D7BAD5F5019187DF
S113196080870F900FBE80169106B0F000E010E063
S113197020E030E0A90160E070E0CB01FCD5F50186
S113198011861086C50174DD8C0103C0C50170DDAC
S11319908C0180169106B8F581149104C1F0F5010B
S11319A0E080F1809801A401BE016F5F7F4FC50103
S11319B0FBDD89819A81081919096816790630F4C2
S11319C0F501F182E082612C712C01C03C01980187
S11319D0A301B201C501E8DD7C01892BB1F024D259
S11319E0F50182859385892B61F08285938500E0DA
S11319F010E020E040E050E0BA0147D6F50113863C
S1131A001286FBD202C0E12CF12CC7010F900F907B
S1131A10DF91CF911F910F91FF90EF90DF90CF90C6
S1131A20BF90AF909F908F907F906F905F904F90FA
S1131A300895E0913218F0913318808181110CC01F
S1131A408FEF9FEFDC018093FF1790930018A09312
S1131A500118B09302180895E0913218F0913318E8
S1131A600780F085E02D0084F185E02D828193814B
S1131A70A481B5818093FF1790930018A093011857
S1131A80B093021808958F929F92AF92BF92CF9213
S1131A90DF92EF92FF92CF936B017C01C42F809071
S1131AA0091890900A18A0900B18B0900C18809107
S1131AB0761890917718029656D88FEFC816D806E4
S1131AC0E806F80669F4CC2359F060917618709111
S1131AD077186E5F7F4F8EE098E10E9455053FC0F6
S1131AE0C80CD91CEA1CFB1CE0917618F0917718FD
S1131AF0C282D382E482F582C814D904EA04FB04C6
S1131B0068F46091761870917718809130189091EC
S1131B1031186E5F7F4F0E94760521C06091761860
S1131B207091771880913218909133186E5F7F4FBF
S1131B300E9476058091FF1790910018A0910118DA
S1131B40B0910218C816D906EA06FB0640F4C09202
S1131B50FF17D0920018E0920118F0920218CF916A
S1131B60FF90EF90DF90CF90BF90AF909F908F90B9
S1131B7008954F925F926F927F928F929F92AF924D
S1131B80BF92CF92DF92EF92FF920F93CF93DF93A6
S1131B904C016B015A012901CA010E9456043C01FF
S1131BA0892B09F4F4C080E390E00E945604EC0110
S1131BB0892B99F07C8E6B8EA50165EA70E0C301D8
S1131BC00E94EC2721E0A21AB1088B8D9C8DA80EEF
S1131BD0B91EC114D10429F420C0C3010E940F0509
S1131BE0D6C0D6018C918D8F8C918823A1F0AE0143
S1131BF0425E5F4FF6013196B8E0CB0ED11CCF01A7
S1131C002191DA012D93AD01DC018C91882319F027
S1131C10EC15FD05A1F71CA201C01D8E043008F0CF
S1131C2003E00A8F0FA318A66E01B2E0CB0ED11CFD
S1131C30C6010E945105CE010E960E945105DB8714
S1131C40CA8784E090E0A0E0B0E0801B9109A1097C
S1131C50B1098E879F87A88BB98BDF8BCE8B1AA691
S1131C6019A61BA61CA61DA61EA61FA6A201B4018A
S1131C70C5010E94DA0599838883E114F10419F0FF
S1131C80F701D183C0830FB6F8940F9280910D1899
S1131C908F5F80930D188091761890917718892B17
S1131CA0D1F5D0937718C093761880910D188130B0
S1131CB009F041C08AE498E10E94400585E598E175
S1131CC00E94400580E698E10E9440058BE698E179
S1131CD00E9440058FE398E10E94400584E398E167
S1131CE00E94400585E298E10E9440058AE198E15E
S1131CF00E9440058EE098E10E9440058FE398E140
S1131D00909333188093321884E398E190933118B8
S1131D108093301810C08091071881110CC0E09195
S1131D207618F0917718928D8A8D891720F0D093C8
S1131D307718C0937618809103188F5F80930318E7
S1131D408DA38A8D90910818981710F48093081821
S1131D50FBE08F9FC0011124B601865B974E0E9461
S1131D6055050F900FBE80910718882361F0E0910C
S1131D707618F0917718928D8A8D981730F40E9416
S1131D80880681E005C081E003C081E001C08FEFD7
S1131D90DF91CF910F91FF90EF90DF90CF90BF90A4
S1131DA0AF909F908F907F906F905F904F90089529
S1131DB0EF92FF920F930F2EFDEFEF2EF7E1FF2E20
S1131DC0F02D00E020E030E040EC50E066E174E00B
S1131DD08DEC90E0CEDE813019F5DED5813001F551
S1131DE0F8948FEF9FEFDC018093FF179093001816
S1131DF0A0930118B093021881E080930718109201
S1131E00091810920A1810920B1810920C18E091ED
S1131E107618F091771881A50E94F9030E944C0668
S1131E200F91FF90EF9008958091FC178F5F80933E
S1131E30FC1708950FB6F8940F92609109187091E9
S1131E400A1880910B1890910C180F900FBE0895EA
S1131E509F92AF92BF92CF92DF92EF92FF920F9335
S1131E601F93CF93DF938091FC178111ADC0C09075
S1131E700918D0900A18E0900B18F0900C188FEF06
S1131E80C81AD80AE80AF80AC0920918D0920A189F
S1131E90E0920B18F0920C18C114D104E104F1047F
S1131EA0B1F4809132189091331820913018309108
S1131EB0311830933318209332189093311880934B
S1131EC03018809104188F5F80930418B2DD8091DC
S1131ED0FF1790910018A0910118B0910218C8162C
S1131EE0D906EA06FB0610F4B12C5DC0B12C0F2E06
S1131EF0FBE0AF2EF02D99249394E0913218F091E9
S1131F003318808181110CC08FEF9FEFDC01809327
S1131F10FF1790930018A0930118B093021843C0C0
S1131F20E0913218F09133180780F085E02DC085D8
S1131F30D1858A819B81AC81BD81C816D906EA0608
S1131F40FB0648F48093FF1790930018A0930118A0
S1131F50B093021828C08E010E5F1F4FC8010E9463
S1131F60B305888D998D892B21F0CE010E960E94A0
S1131F70B3058A8D90910818981710F48093081867
S1131F80A89EC0011124B801865B974E0E94550596
S1131F90E0917618F09177189A8D828D981708F44D
S1131FA0ACCFB92CAACFE0917618F0917718E28DD6
S1131FB08BE0E89FF0011124E65BF74E80818230CC
S1131FC048F0BB24B39406C0809106188F5F8093B9
S1131FD00618B12C80910518882311F0BB24B39402
S1131FE08B2DDF91CF911F910F91FF90EF90DF9098
S1131FF0CF90BF90AF909F900895CF92DF92EF92D1
S1132000FF920F931F93CF93DF930FB6F8940F9221
S11320108091FC1781508093FC178091FC178111EB
S11320205AC080910D1881112CC058C0D701179641
S1132030ED91FC911897C085D185CE010E960E9432
S1132040B3058E010E5F1F4FC8010E94B3058A8D30
S113205090910818981710F480930818D89EC0011E
S11320601124B801865B974E0E945505E0917618BD
S1132070F09177189A8D828D981788F0C092051880
S11320800EC0C0E0D0E00F2EF5E2EF2EF8E1FF2EF7
S1132090F02D0F2EFBE0DF2EF02DCC24C394F7019E
S11320A080818111C3CFCD2B09F0C3DCC091061808
S11320B0CC2349F0D1E0CCDE8111D0930518C15076
S11320C0D1F71092061880910518882331F00E94E8
S11320D0880681E003C080E001C080E00F900FBE5D
S11320E0DF91CF911F910F91FF90EF90DF90CF90F0
S11320F00895CF92DF92EF92FF920F931F93CF93A5
S1132100DF93EC016A017B018FDE009109181091C5
S11321100A1820910B1830910C1888819981AA8192
S1132120BB81AC01BD014C0D5D1D6E1D7F1D0817EB
S113213019072A073B0778F4481759076A077B07EA
S113214040F5488359836A837B8304171507260760
S11321503707A0F40BC0481759076A077B07A0F09C
S1132160041715072607370778F013C0CB01BA0107
S1132170601B710B820B930B40E085DC3EDF811109
S11321800DC00E9488060AC0488359836A837B83F2
S1132190EDCF488359836A837B83F0CFDF91CF915E
S11321A01F910F91FF90EF90DF90CF900895CF9201
S11321B0DF92EF92FF926B017C01672B682B692BF6
S11321C041F032DE40E0C701B6015DDC16DF81116B
S11321D002C00E948806FF90EF90DF90CF90089590
S11321E08091FC17882321F081E0809305180895DD
S11321F010920518E0917618F091771881A50E9445
S11322000304A0917618B0917718E0917618F091B4
S113221077182D913C91838D948D8217930758F0F4
S1132220609176187091771880917618909177184C
S1132230635E7F4FD3D480910818282F30E09BE051
S1132240899FF0011124E65BF74E908191110EC035
S11322504BE08150282F30E0429FF001439FF00D66
S11322601124E65BF74E9081992399F39BE0929FAA
S1132270A001939F500D1124DA01A65BB74E11966D
S1132280ED91FC9112970480F581E02D1296FC9358
S1132290EE931197435B574EE417F50729F44481F5
S11322A05581FD01528341839BE0929FF001939FEE
S11322B0F00D1124E65BF74E0180F281E02D2085BC
S11322C03185309377182093761880930818E0911D
S11322D07618F091771881A50C94F9030895CF929C
S11322E0DF92EF92FF926A017B0160917618709100
S11322F07718625F7F4F0E94760541E0C701B601FF
S1132300C2DBFF90EF90DF90CF900895CF92DF92E1
S1132310EF92FF92CF936A017B01C22F60917618EE
S113232070917718625F7F4F0E945505CC2321F08E
S1132330CC24CA94DC2C76014C2FC701B601A3DB54
S1132340CF91FF90EF90DF90CF9008950F931F935C
S1132350CF93DF93DC011796ED91FC911897C0851C
S1132360D1858E01025F1F4FC8010E94B305809181
S1132370FC17811116C00C501109C8010E94B30545
S11323808A8D90910818981710F480930818BBE070
S11323908B9FC0011124B801865B974E0E9455059E
S11323A005C0B80185E298E10E945505E0917618D0
S11323B0F09177189A8D828D891720F481E08093AB
S11323C0051801C080E0DF91CF911F910F9108950E
S11323D00FB6F8940F9220910418FC0120834091C9
S11323E0091850910A1860910B1870910C184183C8
S11323F05283638374830F900FBE08952091041851
S1132400FC0120834091091850910A1860910B181F
S113241070910C1841835283638374830895CF921F
S1132420DF92EF92FF920F931F93CF93DF93FB0101
S11324300FB6F8940F924091091850910A186091C0
S11324400B1870910C1800811181228133810F3F88
S1132450AFEF1A072A073A0749F1EC01C980DA807D
S1132460EB80FC80A0910418B881BA1729F04C15B0
S11324705D056E057F05E0F44C195D096E097F0961
S1132480401751076207730758F4041B150B260BFA
S1132490370B0083118322833383B0DF80E009C0CC
S11324A0108211821282138281E003C080E001C095
S11324B081E00F900FBEDF91CF911F910F91FF909C
S11324C0EF90DF90CF90089581E0809305180895F0
S11324D08091761890917718089580910718882331
S11324E031F08091FC17882321F080E0089581E089
S11324F0089582E008950F931F93CF93DF93FC0117
S1132500892B79F180A5815080A7228D97A1291765
S113251051F181112AC0EF018F010E5F1F4FC801D5
S11325200E94B3058FA18A8F44E050E060E070E020
S1132530481B5109610971094E875F87688B798B44
S113254090910818981710F4809308182BE0829F34
S1132550C0011124B801865B974E0E94550581E0A5
S113256005C080E003C080E001C080E0DF91CF912E
S11325701F910F9108954F925F926F927F928F9265
S11325809F92AF92BF92CF92DF92EF92FF920F93FE
S11325901F9349015A010FB6F8940F92E0917618EF
S11325A0F091771827A5223039F1E0917618F0914F
S11325B0771843A454A465A476A4DC01CB018095C8
S11325C09095A095B09584219521A621B72183A744
S11325D094A7A5A7B6A7E0917618F091771881E0A3
S11325E087A7C114D104E104F10431F041E0C7012B
S11325F0B60149DA0E9488060F900FBE0FB6F89410
S11326000F920115110569F0E0917618F091771891
S113261083A594A5A5A5B6A5F80180839183A2837B
S1132620B383E0917618F091771887A58230B1F4DE
S1132630E0917618F091771883A594A5A5A5B6A581
S113264080949094A094B09488229922AA22BB22C8
S113265083A694A6A5A6B6A681E001C080E0E09179
S11326607618F091771817A60F900FBE1F910F914F
S1132670FF90EF90DF90CF90BF90AF909F908F909E
S11326807F906F905F904F9008950F931F93CF9317
S1132690DF93FC010FB6F8940F920115110549F070
S11326A083A594A5A5A5B6A5E80188839983AA83E3
S11326B0BB8387A592E097A72230B1F018F42130AC
S11326C031F02AC02330E9F0243001F125C003A5FC
S11326D014A525A536A5402B512B622B732B43A79C
S11326E054A765A776A718C043A554A565A576A5E4
S11326F04F5F5F4F6F4F7F4F43A754A765A776A7E0
S11327000BC043A754A765A776A706C0823049F13A
S113271043A754A765A776A7813029F5EF018F0158
S11327200E5F1F4FC8010E94B3058A8D909108184F
S1132730981710F4809308182BE0829FC00111248D
S1132740B801865B974E0E945505E0917618F0918A
S113275077189A8D828D891740F40E94880681E04B
S113276005C080E003C081E001C081E00F900FBE8E
S1132770DF91CF911F910F910895EF92FF920F93E4
S11327801F93CF93DF93FC010115110549F083A535
S113279094A5A5A5B6A5E80188839983AA83BB83DC
S11327A087A592E097A72230B1F018F4213031F0D8
S11327B02AC02330E9F0243001F125C003A514A573
S11327C025A536A5402B512B622B732B43A754A769
S11327D065A776A718C043A554A565A576A54F5F40
S11327E05F4F6F4F7F4F43A754A765A776A70BC0D2
S11327F043A754A765A776A706C08230D9F143A79B
S113280054A765A776A78130B9F5EF018091FC172D
S1132810811117C08F010E5F1F4FC8010E94B305BD
S11328208A8D90910818981710F480930818EBE09B
S11328308E9FC0011124B801865B974E0E945505F6
S113284007C0BF01625F7F4F85E298E10E94550592
S1132850E0917618F09177189A8D828D891770F42B
S1132860E114F10419F081E0E701888381E08093A9
S1132870051805C080E003C081E001C081E0DF915C
S1132880CF911F910F91FF90EF900895009721F43D
S113289080917618909177180FB6F8940F92FC01F6
S11328A027A5223019F417A681E001C080E00F901B
S11328B00FBE0895CF92DF92EF92FF920F931F9372
S11328C0FC0142835383648375839387828704174F
S11328D0150726073707C0F00C191D092E093F09F3
S11328E086859785A089B189081719072A073B07A8
S11328F000F5BF016E5F7F4F809180189091811821
S11329000E94760580E018C00C151D052E053F05B4
S113291028F44C155D056E057F0568F4BF016E5FF4
S11329207F4F80918218909183180E94760580E0F1
S113293003C081E001C081E01F910F91FF90EF90EF
S1132940DF90CF9008950FB6F8940F9280917E187F
S113295090917F18892BE9F48FE898E10E94400553
S113296084E898E10E9440058FE898E190938318E9
S11329708093821884E898E190938118809380185A
S113298040E067E08AE00E94640890937F18809397
S11329907E180F900FBE0895EF92FF920F93D3DF2E
S11329A080917E1890917F18892B89F00F2EFCE777
S11329B0EF2EF8E1FF2EF02D03E020E030E045E5B6
S11329C050E06BE174E083E091E0D3D801C080E093
S11329D00F91FF90EF9008958F929F92AF92BF92C4
S11329E0CF92DF92EF92FF920F931F93CF93DF93D7
S11329F0CDB7DEB727970FB6F894DEBF0FBECDBFB5
S1132A00E0917E18F0917F18309781F169832A83D1
S1132A103B834C835D839F838E836630F4F45DDD5A
S1132A20823069F400E0A7019601BE016F5F7F4F19
S1132A3080917E1890917F180E94920818C000E03F
S1132A4020E030E0A901BE016F5F7F4F80917E18C6
S1132A5090917F180E9492080AC020E0A801BE014C
S1132A606F5F7F4FCF010E944D0901C080E0279620
S1132A700FB6F894DEBF0FBECDBFDF91CF911F918B
S1132A800F91FF90EF90DF90CF90BF90AF909F9009
S1132A908F9008952F923F924F925F926F927F9200
S1132AA08F929F92AF92BF92CF92DF92EF92FF925A
S1132AB00F931F93CF93DF931C01BCD92B013C01CF
S1132AC08091781890917918A0917A18B0917B1818
S1132AD0481659066A067B0608F053C03BC00780B7
S1132AE0F085E02D80809180A280B380C085D1855F
S1132AF08E010E5F1F4FC8010E94B305EC89FD894A
S1132B00CE0119958F8982FF25C08E859F85A8895E
S1132B10B989880D991DAA1DBB1D88169906AA0698
S1132B20BB0670F48A839B83AC83BD83DB87CA872F
S1132B30B80180918218909183180E9476050AC08A
S1132B40C12CD12C760100E010E0A501940160E0D5
S1132B50CE0142DFE0918218F091831880818111C7
S1132B60BECF8091801890918118909383188093A0
S1132B708218F0938118E093801881E0F10180833A
S1132B8002C0F10110824092781850927918609234
S1132B907A1870927B18C301B201DF91CF911F9113
S1132BA00F91FF90EF90DF90CF90BF90AF909F90E8
S1132BB08F907F906F905F904F903F902F900895EB
S1132BC00895279A2F9A2FEF80E792E021508040B2
S1132BD09040E1F700C000001F9AF5CF279A2F9A82
S1132BE02FEF87EA91E6215080409040E1F700C042
S1132BF000001F9AF5CFEF92FF920F93C1D1E12C01
S1132C00F12C03E020E030E048E851E063E274E0B6
S1132C108AE896E10E94B90D0F91FF90EF90089514
S1132C20C7D1282F30E03093021A2093011A811162
S1132C3006C064E670E080E090E0B9DAF1CFE1D15B
S1132C406093FD197093FE198093FF199093001AF5
S1132C502FE234E03F932F93DAD07F936F9381E395
S1132C6094E09F938F938AE494E09F938F930E94C0
S1132C7042286091FD197091FE198091FF1990917D
S1132C80001ACAD02DB73EB7285F3F4F0FB6F8944D
S1132C903EBF0FBE2DBFCB0108958AD1282F30E04F
S1132CA03093021A2093011A811106C064E670E081
S1132CB080E090E07CDAF1CFB9D16093F919709398
S1132CC0FA198093FB199093FC1922E534E03F93A1
S1132CD02F939DD07F936F9384E594E09F938F937C
S1132CE08AE494E09F938F930E9442286091F9199B
S1132CF07091FA198091FB199091FC1988D02DB725
S1132D003EB7285F3F4F0FB6F8943EBF0FBE2DBFAE
S1132D10CB0108950F2EFBE6EF2EF4E0FF2EF02DED
S1132D20CAEED5E00DEA14E046D1282F30E0309306
S1132D30021A2093011A232B71F01F928F93FF9292
S1132D40EF92DF93CF930E9442280F900F900F9041
S1132D500F900F900F906CE370E080E090E027DA22
S1132D603FD1282F30E03093021A2093011A232BED
S1132D7071F01F928F931F930F93DF93CF930E9451
S1132D8042280F900F900F900F900F900F9066E9CC
S1132D9070E080E090E00BDA80DF42DFC5CF0F9374
S1132DA08091031A9091041A892B89F481E00E947E
S1132DB032099093041A8093031A009741F000E0BB
S1132DC020E030E0A90160E070E00E9492080F91D9
S1132DD0089511DF0E94960281B1816881B90E9431
S1132DE0F30380E00E94FA22DADF85E06AD060E033
S1132DF070E081E007D483E00C94DF030895E9DFF9
S1132E0080EF94E00E9455280E94D80EFFCF04D092
S1132E106894B11150C0089533D088F09F5790F052
S1132E20B92F9927B751A0F0D1F0660F771F881FEB
S1132E30991F1AF0BA95C9F712C0B13081F03AD08F
S1132E40B1E0089537C0672F782F8827B85F39F02D
S1132E50B93FCCF3869577956795B395D9F73EF44A
S1132E6090958095709561957F4F8F4F9F4F0895F2
S1132E7057FD9058440F551F59F05F3F71F0479527
S1132E80880F97FB991F61F09F3F79F0879508950C
S1132E90121613061406551FF2CF4695F1DF08C02B
S1132EA0161617061806991FF1CF86957105610548
S1132EB008940895E894BB2766277727CB0197F9F0
S1132EC00895E5E0FAE127E53EE1318320832AE530
S1132ED03EE13383228325E63EE13583248329E6DC
S1132EE03EE1378326832FE63EE1318720872BE7B7
S1132EF03EE13387228720E83EE1358724872CE8AA
S1132F003EE1378726872CE63EE1318B208B21E991
S1132F103EE1338B228B2EE93EE1358B248B682FE7
S1132F20CF013CC108956530F1F4FA0180818F73BB
S1132F3090E0982F88272181822B90930902809317
S1132F4008028281F0E48F9FC0011124FA012381D9
S1132F5026952695822B909307028093060281E0A2
S1132F6080939A180895643051F080E090E490932F
S1132F700702809306029093090280930802089541
S1132F800F931F9303E917E120E034E244EF50E08C
S1132F9060E087E20E94342390939C1880939B18EE
S1132FA021E0892B09F020E0822F1F910F910895D1
S1132FB080919A18089580919B1890919C1800977D
S1132FC059F040E060E070E00E948523843031F4E1
S1132FD010929A1880E0089582E0089583E008959D
S1132FE080919B1890919C18009739F064E00E949E
S1132FF0D123853021F083E0089582E0089580E0B4
S11330000895609108027091090280E090E00E94A6
S1133010AF2520E030E048EC52E40E94142620E082
S113302038EF4FE756E40C94442508956091060266
S11330307091070280E090E00E94AF2520E030E02C
S113304045E253E40E94142620E038EF4FE756E4AB
S11330500E94442520E030E040E252E40C94DD2458
S11330600895CF93DF9390E0FC01EE0FFF1FE80F6C
S1133070F91FEE0FFF1FE356F74E238121110AC0FB
S1133080EF01E0910D1AF0910E1A6A8188819981FD
S1133090199512C0DC01AA0FBB1FED01C80FD91F7F
S11330A0CC0FDD1FC356D74EE091171AF091181AB2
S11330B06A81888199811995DF91CF910895CF9381
S11330C0DF9390E0FC01EE0FFF1FE80FF91FEE0FF6
S11330D0FF1FE356F74E238121110AC0EF01E0914F
S11330E0171AF091181A6A8188819981199512C06A
S11330F0DC01AA0FBB1FED01C80FD91FCC0FDD1FC8
S1133100C356D74EE0910D1AF0910E1A6A81888148
S113311099811995DF91CF9108950F2EF5E0CF2E67
S1133120FAE1DF2EF02D04E0CDE9D8E110E08C8146
S1133130813069F0E8F0823039F5D6011C96ED91C2
S1133140FC911D976A818881998119951DC08D8193
S11331508F5F8A3010F48D8317C01D82D6011C96B0
S1133160ED91FC911D976A818881998119950CC014
S11331708D81882331F0812FA2DF8D8181508D8351
S113318003C00C83812F6DDF1F5F2696143079F600
S113319065E070E080E090E00AD8C6CFCF92DF927D
S11331A0EF92FF920F931F93CF93DF93062F0F2E6F
S11331B0F5E0EF2EFAE1FF2EF02DD7011896ED91F0
S11331C0FC91199766E087E290E01995CDE9D8E182
S11331D00F2EF8E2CF2ED12CF02DD982C88286E0B2
S11331E08A831B8214E01C8380E03BDFD70118969E
S11331F0ED91FC91199767E087E290E01995DF82E1
S1133200CE8287E0888719861A8781E02ADFD70172
S11332101896ED91FC91199765E083E390E0199578
S1133220D7011896ED91FC91199761E084E390E041
S1133230199584E390E09D878C8785E08E871F86AF
S1133240188B82E00EDFD7011896ED91FC91199747
S113325064E081E091E01995D7011896ED91FC9115
S1133260199761E082E091E0199582E091E09B8BEF
S11332708A8B1C8B1D8A1E8B83E0F3DEE12CF12CE0
S113328020E030E040EC50E062E075E08DE898E149
S11332900E94B90DDF91CF911F910F91FF90EF9094
S11332A0DF90CF9008950F931F93CF93DF93C82F90
S11332B0D0E08E01000F111FD801AC0FBD1FAA0F63
S11332C0BB1FA356B74EE091111AF091121A129631
S11332D06C9112978D919C911995C00FD11FCC0FB1
S11332E0DD1FC356D74E81E08C83DF91CF911F91B0
S11332F00F9108950F931F93CF93DF93C82FD0E0BE
S11333008E01000F111FD801AC0FBD1FAA0FBB1FE8
S1133310A356B74EE091111AF091121A12966C91BD
S113332012978D919C911995C00FD11FCC0FDD1F61
S1133330C356D74E82E08C83DF91CF911F910F91BA
S11333400895282F30E0F901EE0FFF1FE20FF31F5D
S1133350EE0FFF1FE356F74E93E09483B0CE08952B
S1133360282F30E0F901EE0FFF1FE20FF31FEE0FDD
S1133370FF1FE356F74E94E0948373CE089590E0D4
S1133380FC01EE0FFF1FDF01A80FB91FAA0FBB1F1F
S1133390A356B74E24E015962C931597FD0114827D
S11333A0089590E0FC01EE0FFF1FDF01A80FB91F85
S11333B0AA0FBB1FA356B74E21E015962C93159761
S11333C0FD01148208950F931F93CF93DF931F92EF
S11333D01F92CDB7DEB78C0119822DC0E091191967
S11333E0EC3250F481E08E0F80931919F0E0E55B24
S11333F0F64E8A81808302C0109219198A818A301C
S1133400D1F44091191950E0FA01E75BF64E1082AD
S1133410415051099E012F5F3F4F6BE479E1809148
S11334201C1990911D190E94360C898181110E94EA
S1133430880610921919BE016E5F7F4FC80148D6E5
S1133440882361F20F900F90DF91CF911F910F911C
S113345008950F931F93CF93DF938C01EB01809119
S11334601C1990911D190E944E0BB80185EB98E12F
S11334700E942328209779F0E5EBF8E101900020E1
S1133480E9F7319780E290E091838083BE0185EB78
S113349098E10E941828E5EBF8E1DF010D90002087
S11334A0E9F711978DE09AE011969C938E9312960A
S11334B01C9201900020E9F73197E55BF841AE2FAB
S11334C085EB98E1AC016A2F80911E1990911F1928
S11334D0AFD5811111C008E215E020E030E04DE2E3
S11334E050E065EA79E180911C1990911D190E94C0
S11334F0780C85EA99E102C080E090E0DF91CF91F9
S11335001F910F9108952F923F924F925F926F9265
S11335107F928F929F92AF92BF92CF92DF92EF925F
S1133520FF920F931F93CF93DF935C01FC010190F3
S11335300020E9F731976F01C81AD90A5C2C0F2EC5
S1133540F3EA8F2EF7E09F2EF02DE12CF12C4C2C7A
S11335503701F40101811281E80109900020E9F7A3
S11335602197C01BD10B3C2EF9E0CF16D10458F0A3
S1133570F4012080FEE02F1206C0B801C5010E94AC
S1133580F327892B09F5442D351408F44C2F50E00A
S1133590B801C5010E942A28892B49F4F301EE0FD2
S11335A0FF1FE60DF71DED55F84F20800DC08FEF7E
S11335B0E81AF80AE3E08E0E911CF1E1EF16F1042B
S11335C039F66894222424F8822DDF91CF911F913B
S11335D00F91FF90EF90DF90CF90BF90AF909F90AE
S11335E08F907F906F905F904F903F902F900895B1
S11335F030DF89CF089580911C1990911D190C9486
S11336004E0B08958F929F92AF92CF92EF920F93A9
S11336101F93CF93C82F8B0141E060E070E088ECEA
S113362090E00E94220B90931D1980931C19109313
S11336301B1900931A190F2EF3EE8F2EF9E19F2E0A
S1133640F02D6894AA24A6F86894CC24C6F8E12C3A
S113365000E023E040E051EE60E070E08C2F2CD4D9
S113366090931F1980931E19E0910D1AF0910E1A70
S113367064E087E091E01995CF911F910F91EF904D
S1133680CF90AF909F908F900895882349F0E09158
S1133690171AF091181A64E088E091E019950895DA
S11336A0E0910D1AF0910E1A64E088E091E019950A
S11336B0089560E070E089E295E0CBDEE5EAF9E1A7
S11336C001900020E9F73197E55AF94181E07597B7
S11336D008F080E00895CF93DF93EC0160E070E0A0
S11336E08AE395E0B6DEE5EAF9E101900020E9F726
S11336F0E65BF94139F465EA79E1CE010E942328B9
S113370080E002C0188281E0DF91CF910895FC012E
S113371001900020E9F79F01215131092817390749
S113372029F4BC0188E695E063CF089589E0089503
S1133730FC0101900020E9F79F012151310928176C
S1133740390729F4BC0187E795E052CF089589E051
S11337500895FC0101900020E9F79F0121523109ED
S11337602817390729F4BC0186E895E041CF08956C
S113377089E0089560E070E085EC95E039CF089524
S11337800F931F93E82FF0E0EE0FFF1FE156F84F61
S1133790608171818EEC95E02BDF811114C008E209
S11337A015E020E030E04DE250E065EA79E18091F7
S11337B01C1990911D190E94780C882321F085EA28
S11337C099E1A1DE03C085EA99E19DDE1F910F9185
S11337D008950F931F93CF93DF931F92CDB7DEB756
S11337E0DB0111969C911197953108F0B4C099238F
S11337F081F160E070E0272F30E0462F50E0FD01BA
S1133800E40FF51F928192959F709A3010F0995CA5
S113381001C0905DF901EA5CF64E90832F5F3F4F43
S1133820FD01E40FF51F92819F70492F50E04A304B
S1133830510514F0995C01C0905DF901EA5CF64E03
S113384090837E5F6F5F11969C911197691798F230
S113385001C070E0E72FF0E0EA5CF64E10824C9174
S1133860811103C087ED95E002C089ED95E026E360
S113387039E13F932F931F924F939F938F938DED35
S113388095E09F938F9388E799E19F938F930E948C
S1133890852860E070E088E799E1AADE0FB6F89425
S11338A0DEBF0FBECDBF811159C008E215E020E094
S11338B030E04DE250E065EA79E180911C19909185
S11338C01D190E94780C882309F447C085EA99E100
S11338D01ADE8E3009F042C087E0898380911A197C
S11338E090911B19892BA9F1BE016F5F7F4F85EA67
S11338F099E168D180932019E981F0E0EB55F64E07
S1133900DF010D900020E9F71197AE1BBF0BAA232E
S113391091F0BB27CD0101979C0112F42F5F3F4F1B
S11339203595279520932119AF014F5F5F4F64E1CF
S113393082E299E173D101E010E020E030E046E159
S113394050E060E279E180911A1990911B190E946C
S11339508D0B8EE003C084E101C080E00F90DF9105
S1133960CF911F910F910895813019F06DEE75E09C
S113397002C066EC76E081EF95E03ACE08959F931D
S11339808F9382E296E09F938F9388E799E19F93C8
S11339908F930E94852860E070E088E799E128DE33
S11339A00F900F900F900F900F900F9008952F92FB
S11339B03F924F925F926F927F928F929F92AF92BB
S11339C0BF92CF92DF92EF92FF920F931F93CF9308
S11339D0DF93CDB7DEB7A0970FB6F894DEBF0FBE66
S11339E0CDBF6FE476E08BE596E033DD8CDD8111AD
S11339F0A3C080E2E1E2F2E0DE01119601900D92B3
S1133A008A95E1F79E012F5F3F4F6901E12CF12C6C
S1133A100F2EF7E6AF2EF6E0BF2EF02D08E719E1E2
S1133A200F2EF0E84F2EF6E05F2EF02D0F2EF7E963
S1133A308F2EF6E09F2EF02D0F2EF1EB6F2EF6E079
S1133A407F2EF02D3E2C2F2CFF92EF92BF92AF923F
S1133A501F930F930E94852860E070E0C801F9DC91
S1133A6052DD0F900F900F900F900F900F908111D7
S1133A7063C032E03E15E8F4F60183818F938281BE
S1133A808F9381818F9380818F93FF92EF925F92C6
S1133A904F921F930F930E94852860E070E0C80145
S1133AA0D8DC31DD0FB6F894DEBF0FBECDBF811177
S1133AB043C02F923F929F928F921F930F930E9425
S1133AC0852860E070E0C801C4DC1DDD0F900F9014
S1133AD00F900F900F900F9081112EC02F923F9254
S1133AE07F926F921F930F930E94852860E070E08D
S1133AF0C801AFDC08DD0F900F900F900F900F906E
S1133B000F90811119C03FEFE31AF30A84E0C80E45
S1133B10D11C98E0E916F10409F094CF60E070E05C
S1133B2089EC96E096DCEFDC811106C060E070E081
S1133B308AED96E08EDCE7DCA0960FB6F894DEBF43
S1133B400FBECDBFDF91CF911F910F91FF90EF90EA
S1133B50DF90CF90BF90AF909F908F907F906F90A9
S1133B605F904F903F902F900895EF92FF920F93A4
S1133B701F93CF93DF93EC018B017A0181E0F4DE94
S1133B8081110DC0CE01D4DD811109C0C801E1DD70
S1133B90811105C0C701BBDD811101C0EBDDDF91DF
S1133BA0CF911F910F91FF90EF90089590E0FC0149
S1133BB0EE0FFF1F8E0F9F1FFC01ED55F84F818103
S1133BC092810895DC01009729F1FB012081FC0119
S1133BD001900020E9F73197E81BF90B822F90E060
S1133BE0E817F907C8F080E008C0880F382F330FB2
S1133BF0330F830F8053890F2F5FFD01E20FF11DF7
S1133C00908130ED390F3A3010F49111EECFFB0171
S1133C102083089580E0089580E008950F931F9312
S1133C20CF93DF93DC01EA012097E1F1FA010190DF
S1133C300020E9F73197E41BF50B329710F532C0F9
S1133C408D01040F151F30E0AE01420F531FFA011E
S1133C509081913428F09753592F5295507F03C087
S1133C60592F5295507F2C0F3D1FF90191819134AA
S1133C7010F0975301C09053950FF80190838F5F14
S1133C8001C080E0282F220F482F50E0FE01019050
S1133C900020E9F73197EC1BFD0B4E175F0710F47A
S1133CA08613CECFDF91CF911F910F910895FC0120
S1133CB080810895FC01208181E090E002C0880F9A
S1133CC0991F6A95E2F782230895FC018081862377
S1133CD00895FC0160830895FC0110820895FC019D
S1133CE0408121E030E002C0220F331F6A95E2F7E1
S1133CF0242B20830895FC012081622B6083089586
S1133D00FC01408121E030E002C0220F331F6A959C
S1133D10E2F7242720830895FC0120816227608331
S1133D200895FC01908121E030E002C0220F331F8E
S1133D306A95E2F72095292320830895FC01908158
S1133D4060956923608308958091D519860F8093C7
S1133D50D5199091D819913079F028F09230A9F0C2
S1133D60933019F108956F3F09F048C01092D519A6
S1133D7081E08093D8190895663809F03FC0109205
S1133D80D41982E08093D8190895E091D41981E080
S1133D908E0F8093D419F0E0EE52F64E6083823099
S1133DA069F583E08093D81908959091D41921E09E
S1133DB0290F2093D419963009F581110EC0E2ED34
S1133DC0F9E1808190E0982F88272181820F911D4D
S1133DD09093DA198093D91904C01092DA191092C9
S1133DE0D9191092D819E091D619F091D7193097B2
S1133DF029F08091D9199091DA19199508958F9223
S1133E009F92AF92CF92EF920F93CF93DF93EB01F8
S1133E100F2EF4EA8F2EFEE19F2EF02D6894AA2433
S1133E20A4F86894CC24C4F8E12C00E023E040E832
S1133E3055E260E070E040D09093DC198093DB1988
S1133E40D093D719C093D619DF91CF910F91EF90EA
S1133E50CF90AF909F908F900895CF93DF93CDB77D
S1133E60DEB729970FB6F894DEBF0FBECDBF89E049
S1133E70E1E4F2E09E012F5F3F4FD90101900D92E2
S1133E808A95E1F71092DA191092D9198091DB1909
S1133E909091DC19009731F0422F532F69E0C8D07C
S1133EA080E001C082E029960FB6F894DEBF0FBE11
S1133EB0CDBFDF91CF9108952F923F924F925F92A1
S1133EC06F927F928F929F92AF92CF92EF92FF92D6
S1133ED00F931F93CF93DF93CDB7DEB7F82E2A014C
S1133EE03B0188E090E04AD78C018F2D90E0880F49
S1133EF0991FFC01E352F64E11830083FC01E65F37
S1133F00FD4F80819181D8018D939C936C2D70E03D
S1133F1084E090E019D71C0161E070E086E090E055
S1133F2013D77C014C2DB1012CD5F801F582E48224
S1133F306A2D70E084E090E007D71C0161E070E036
S1133F4086E090E001D77C014A2DB1011AD5D80151
S1133F501396FC92EE92129717969C928E92169755
S1133F60FFB6F894ED91FC911197369780818260A9
S1133F7080838D909C90C301B201F1D520E030E0A4
S1133F8040E051E451D69B01AC0160E074E284E767
S1133F909BE47AD520E030E040E85FE30ED50E9450
S1133FA00C17F40132976083D801ED91FC911197BD
S1133FB0359788E98083ED91FC91349786E080837E
S1133FC0FFBEC801DF91CF911F910F91FF90EF9039
S1133FD0CF90AF909F908F907F906F905F904F9015
S1133FE03F902F900895CF93DF93EC01EA81FB81FA
S1133FF0938182812581981B922384819817A1F053
S1134000938126952923A081B181A20FB11D6C93C0
S11340109F5F258192239383E881F981359780817D
S11340208062808380E001C082E0DF91CF910895B7
S1134030EF92FF920F931F93CF93DF937C01DC01E8
S11340401296ED91FC91139793818281981B85813F
S113405098238481891B861798F1662341F1842F64
S1134060952FDC016150462F50E04F5F5F4F480FA2
S1134070591FE701EA81FB81938182812581981B85
S113408092238481981779F08C9193812695292322
S1134090608171818B01020F111DE80188839F5F8C
S11340A08581982393831196A417B50711F7D70137
S11340B0ED91FC91359780818062808380E001C01E
S11340C082E0DF91CF911F910F91FF90EF900895BF
S11340D0DC011496ED91FC911597938182819817D8
S11340E089F09281858186958923A081B181A80F69
S11340F0B11D8C91DB018C939F5F85819823928302
S113410080E0089583E008951F920F920FB60F92F6
S113411011240BB60F922F933F934F935F936F939A
S11341207F938F939F93AF93BF93CF93DF93EF933B
S1134130FF93A091DD19B091DE19109711F16091F0
S1134140C6001496ED91FC91159793818281258187
S1134150981B92238481981761F0838126952823E4
S1134160C081D181C20FD11D68838F5F958189235E
S113417083831696ED91FC911797309711F0CD013A
S11341801995FF91EF91DF91CF91BF91AF919F91DD
S11341908F917F916F915F914F913F912F910F90EC
S11341A00BBE0F900FBE0F901F9018951F920F9289
S11341B00FB60F9211240BB60F922F938F939F93E8
S11341C0AF93BF93EF93FF93E091DD19F091DE1964
S11341D03097B9F00280F381E02D938182819817A2
S11341E0B1F092818581282F26952923A081B18160
S11341F0A20FB11D2C919F5F892382832093C60057
S11342000BC0E1ECF0E080818F7D808305C0E1ECA0
S1134210F0E080818F7D8083FF91EF91BF91AF911A
S11342209F918F912F910F900BBE0F900FBE0F9007
S11342301F9018951F920F920FB60F9211240BB670
S11342400F922F933F934F935F936F937F938F932B
S11342509F93AF93BF93CF93DF93EF93FF93A0917B
S1134260DF19B091E019109711F16091CE00149606
S1134270ED91FC911597938182812581981B92235E
S11342808481981761F0838126952823C081D18188
S1134290C20FD11D68838F5F95818923838316960E
S11342A0ED91FC911797309711F0CD011995FF917D
S11342B0EF91DF91CF91BF91AF919F918F917F91BA
S11342C06F915F914F913F912F910F900BBE0F9083
S11342D00FBE0F901F9018951F920F920FB60F925A
S11342E011240BB60F922F938F939F93AF93BF9389
S11342F0EF93FF93E091DF19F091E0193097B9F053
S11343000280F381E02D938182819817B1F092812C
S11343108581282F26952923A081B181A20FB11D63
S11343202C919F5F892382832093CE000BC0E9ECFC
S1134330F0E080818F7D808305C0E9ECF0E080812E
S11343408F7D8083FF91EF91BF91AF919F918F916A
S11343502F910F900BBE0F900FBE0F901F901895CA
S11343601F920F920FB60F9211240BB60F922F9338
S11343703F934F935F936F937F938F939F93AF93E9
S1134380BF93CF93DF93EF93FF93A091E119B09183
S1134390E219109711F16091D6001496ED91FC91F9
S11343A01597938182812581981B92238481981784
S11343B061F0838126952823C081D181C20FD11D4C
S11343C068838F5F9581892383831696ED91FC9191
S11343D01797309711F0CD011995FF91EF91DF9167
S11343E0CF91BF91AF919F918F917F916F915F9189
S11343F04F913F912F910F900BBE0F900FBE0F90D6
S11344001F9018951F920F920FB60F9211240BB69E
S11344100F922F938F939F93AF93BF93EF93FF9339
S1134420E091E119F091E2193097B9F00280F3813B
S1134430E02D938182819817B1F092818581282F94
S113444026952923A081B181A20FB11D2C919F5FD4
S1134450892382832093D6000BC0E1EDF0E08081B4
S11344608F7D808305C0E1EDF0E080818F7D8083C6
S1134470FF91EF91BF91AF919F918F912F910F90E9
S11344800BBE0F900FBE0F901F9018951F920F92A6
S11344900FB60F9211240BB60F922F933F934F93A5
S11344A05F936F937F938F939F93AF93BF93CF93B8
S11344B0DF93EF93FF93A091E319B091E419109760
S11344C011F1609136011496ED91FC911597938149
S11344D082812581981B92238481981761F08381BE
S11344E026952823C081D181C20FD11D68838F5F97
S11344F09581892383831696ED91FC9117973097C4
S113450011F0CD011995FF91EF91DF91CF91BF91FA
S1134510AF919F918F917F916F915F914F913F9157
S11345202F910F900BBE0F900FBE0F901F901895F8
S11345301F920F920FB60F9211240BB60F922F9366
S11345408F939F93AF93BF93EF93FF93E091E319FE
S1134550F091E4193097B9F00280F381E02D938152
S113456082819817B1F092818581282F269529237D
S1134570A081B181A20FB11D2C919F5F89238283F9
S1134580209336010BC0E1E3F1E080818F7D8083CD
S113459005C0E1E3F1E080818F7D8083FF91EF919D
S11345A0BF91AF919F918F912F910F900BBE0F9060
S11345B00FBE0F901F901895CF93DF931F92CDB726
S11345C0DEB7BE016F5F7F4F8091E5199091E619C8
S11345D07FDD8111F6CF898190E00F90DF91CF913B
S11345E00895682F8091E5199091E619FCDC80E02C
S11345F090E008958F929F92AF92CF92EF920F9393
S1134600812C912C6894AA24A7F86894CC24C7F828
S1134610E12C00E023E040E051EE60E070E04CDC8F
S11346209093E6198093E519EFE1FAE182E192E0D3
S113463091838083938382830F91EF90CF90AF9087
S11346409F908F9008958091F51981110CC08CE092
S11346508093B8008FEF8093BB0084E08093BC000C
S113466081E08093F5190895AF92BF92CF92DF92C3
S1134670EF92FF920F931F93CF93DF93A82EB62E42
S113468069017A0184E090E079D3EC01892B61F12E
S1134690A88281E0B81212C0C701B60120EA36E848
S11346A041E050E027D3DA01C9014097A109B109DB
S11346B0B695A79597958795898311C0C701B601CB
S11346C020E83AE146E050E015D3DA01C901409709
S11346D0A109B109B695A7959795879589831B83F9
S11346E00A838C2F9D2F02C080E090E0DF91CF9150
S11346F01F910F91FF90EF90DF90CF90BF90AF90FC
S113470008958091BC0081700895FF920F931F93C8
S1134710CF93DF930097D1F14A30D0F5F42E8B017B
S1134720EC01EFDF811136C08091E8199091E9190D
S1134730C817D90741F087DF89818093B800D093E7
S1134740E919C093E81981E08F0D8093EA198881F3
S1134750880F8093EB19FF2089F0F801ACEEB9E1E2
S11347604FEF4F0D642F70E0CB010196B801680F35
S1134770791F81918D93E617F707D9F788EF809316
S1134780200285EA8093BC0084E005C086E003C073
S113479087E001C082E0DF91CF911F910F91FF90DC
S11347A008951F93CF93DF93009729F16B3028F579
S11347B0162FEC01A6DF811122C08091E819909197
S11347C0E919C817D90741F03EDF89818093B80001
S11347D0D093E919C093E8191093EA198881880FD6
S11347E081608093EB1988EF8093200285EA80939F
S11347F0BC0085E005C086E003C087E001C082E01C
S1134800DF91CF911F9108951F920F920FB60F92CF
S113481011240BB60F922F933F934F935F936F9393
S11348207F938F939F93AF93BF93EF93FF93E09105
S1134830B9008E2F90E0FC013897E135F10508F0BE
S113484075C08827E458FF4F8F4F76C21092E7193E
S1134850E091E7198091EA19E81770F481E08E0F6E
S11348608093E719F0E0E551F64E80818093BB0018
S113487085E88093BC0072C084E98093BC00809179
S1134880E8199091E919DC011296ED91FC911397C6
S1134890309709F463C020E040E050E064E01995EB
S11348A05DC0E091E71981E08E0F8093E719809154
S11348B0BB00F0E0E551F64E80838091B90080346E
S11348C011F41092E7192091E71930E08091EA1968
S11348D090E001972817390724F485EC8093BC00F5
S11348E03DC085E88093BC0039C08091BB00E09155
S11348F0E719F0E0E551F64E808384E98093BC002B
S11349008091E8199091E919DC011296ED91FC91DE
S11349101397309719F12091EA194BEE59E165E0AC
S113492019951CC085EA8093BC0018C08091B90019
S11349308093200284E08093BC008091E8199091D8
S1134940E919DC011296ED91FC911397309731F03F
S113495020E040E050E0609120021995FF91EF9132
S1134960BF91AF919F918F917F916F915F914F9183
S11349703F912F910F900BBE0F900FBE0F901F9081
S11349801895FC01411101C01AD3842F90E09C01B9
S11349902150310982239323892B09F010D3413804
S11349A008F00DD3128213824483440F415045838F
S11349B07183608380E090E008955058BB27AA2754
S11349C00ED021C112D130F017D120F031F49F3F25
S11349D011F41EF407C10EF4E095E7FBFDC0E92FC6
S11349E00E94381778F3BA1762077307840795078C
S11349F020F079F4A6F50C945A170EF4E0950B2EDA
S1134A00BA2FA02D0B01B90190010C01CA01A0011C
S1134A101124FF27591B99F0593F50F4503E68F177
S1134A201A16F040A22F232F342F4427585FF3CFB8
S1134A30469537952795A795F0405395C9F77EF489
S1134A401F16BA0B620B730B840BBAF09150A1F0D2
S1134A50FF0FBB1F661F771F881FC2F70EC0BA0F58
S1134A60621F731F841F48F4879577956795B795E0
S1134A70F7959E3F08F0B1CF9395880F08F09927DA
S1134A80EE0F9795879508950DD0BDC0B5D048F029
S1134A90ACD038F021F45F3F21F09EC051110C944A
S1134AA05B17A0C00E94381788F39923B9F35523E4
S1134AB0A1F3951B550BBB27AA276217730784071D
S1134AC038F09F5F5F4F220F331F441FAA1FA9F3C3
S1134AD034D00E2E3AF0E0E831D091505040E695B3
S1134AE0001CCAF72AD0FE2F28D0660F771F881F14
S1134AF0BB1F261737074807AB07B0E809F0BB0B05
S1134B00802DBF01FF2793585F4F32F09E3F510520
S1134B1070F062C00C945B175F3FE4F3983ED4F3EB
S1134B20869577956795B795F7959F5FC9F7880F31
S1134B30911D9695879597F90895E1E0660F771F83
S1134B40881FBB1F621773078407BA0720F0621B14
S1134B50730B840BBA0BEE1F88F7E0950895E89465
S1134B6009C097FB3EF490958095709561957F4FB1
S1134B708F4F9F4F9923A9F0F92F96E9BB2793955F
S1134B80F695879577956795B795F111F8CFFAF46F
S1134B90BB0F11F460FF1BC06F5F7F4F8F4F9F4FA0
S1134BA016C0882311F096E911C0772321F09EE8FE
S1134BB0872F762F05C0662371F096E8862F70E064
S1134BC060E02AF09A95660F771F881FDAF7880F3E
S1134BD09695879597F9089597F99F6780E870E00F
S1134BE060E008959FEF80EC089500240A9416165F
S1134BF0170618060906089500240A9412161306C7
S1134C00140605060895092E0394000C11F4882354
S1134C1052F0BB0F40F4BF2B11F460FF04C06F5F70
S1134C207F4F8F4F9F4F08950CD0EDCFDEDF28F0DC
S1134C30E3DF18F0952309F0CFCFD4CF11240C94DF
S1134C405B170E94381790F3959FC1F3950F50E0BE
S1134C50551F629FF001729FBB27F00DB11D639F2A
S1134C60AA27F00DB11DAA1F649F6627B00DA11DD0
S1134C70661F829F2227B00DA11D621F739FB00D76
S1134C80A11D621F839FA00D611D221F749F3327E6
S1134C90A00D611D231F849F600D211D822F762F7F
S1134CA06A2F11249F57504092F0E9F088234AF06C
S1134CB0EE0FFF1FBB1F661F771F881F91505040C8
S1134CC0A9F79E3F510578F087CF0C945B175F3F9F
S1134CD0E4F3983ED4F3869577956795B795F79561
S1134CE0E7959F5FC1F7FE2B880F911D96958795D9
S1134CF097F90895A1E21A2EAA1BBB1BFD010DC052
S1134D00AA1FBB1FEE1FFF1FA217B307E407F50777
S1134D1020F0A21BB30BE40BF50B661F771F881F53
S1134D20991F1A9469F760957095809590959B01E9
S1134D30AC01BD01CF010895EE0FFF1F881F8BBF8B
S1134D400790F691E02D19940F931F93CF93DF935F
S1134D50869F8001879F100D969F100D1124C80116
S1134D600DD0EC01009721F0A80160E070E034D18F
S1134D70CE01DF91CF911F910F9108950F931F934F
S1134D80CF93DF938230910510F482E090E0E091BC
S1134D901D1AF0911E1A20E030E0A0E0B0E0309738
S1134DA019F1408151810281138148175907C8F0D4
S1134DB08417950769F4109731F012960C931297A3
S1134DC013961C9327C000931D1A10931E1A22C019
S1134DD02115310519F04217530718F49A01BD0142
S1134DE0EF01DF01F801DBCF21153105F9F0281BB4
S1134DF0390B2430310580F48A819B81611571055A
S1134E0021F0FB019383828304C090931E1A809344
S1134E101D1AFE01329644C0FE01E20FF31F819376
S1134E20919322503109398328833AC020911B1A67
S1134E3030911C1A232B41F4209102023091030279
S1134E4030931C1A20931B1A209100023091010206
S1134E502115310541F42DB73EB74091040250911C
S1134E600502241B350BE0911B1AF0911C1AE21762
S1134E70F307A0F42E1B3F0B2817390778F0AC0179
S1134E804E5F5F4F2417350748F04E0F5F1F509356
S1134E901C1A40931B1A8193919302C0E0E0F0E046
S1134EA0CF01DF91CF911F910F910895CF93DF939D
S1134EB0009709F481C0FC01329713821282A091F9
S1134EC01D1AB0911E1A109781F420813181820F2E
S1134ED0931F20911B1A30911C1A2817390751F57A
S1134EE0F0931C1AE0931B1A67C0ED0120E030E038
S1134EF0CE17DF0740F44A815B819E0141155105BD
S1134F00F1F0EA01F5CFD383C28340815181840F4C
S1134F10951FC817D90759F488819981840F951F63
S1134F200296918380838A819B8193838283211556
S1134F30310529F4F0931E1AE0931D1A3DC0E901CE
S1134F40FB83EA8349915991C40FD51FEC17FD07E0
S1134F5061F480819181840F951F0296E901998300
S1134F608883828193819B838A83E0E0F0E01296B8
S1134F708D919C911397009719F0FD01DC01F7CFF7
S1134F808D919C9111979D012E5F3F4F820F931F2E
S1134F9020911B1A30911C1A2817390769F430978D
S1134FA029F410921E1A10921D1A02C01382128242
S1134FB0B0931C1AA0931B1ADF91CF91089581E03E
S1134FC090E0F8947DC3FB01DC0102C001900D92D6
S1134FD041505040D8F70895DC0101C06D93415011
S1134FE05040E0F70895FB0151915523B1F0BF0102
S1134FF0DC01052E4D91442369F010D0D9F7CD0181
S11350000190002049F04D91411108D0C9F3FB01F2
S11350104111EECF81E090E001970895402539F0E9
S1135020403229F440294B57465E08F018940895FD
S1135030FB01DC010D900020E9F7119701900D921E
S11350400020E1F70895FB01DC0101900D9200209E
S1135050E1F70895FB01DC014150504088F08D9147
S113506081341CF08B350CF4805E619161341CF04A
S11350706B350CF4605E861B611171F3990B089516
S1135080881BFCCFCF93DF93CDB7DEB7AE014A5F69
S11350905F4FFA0161917191AF018091211A909152
S11350A0221A61D0DF91CF9108950F931F93CF936C
S11350B0DF93E091211AF091221A238121FF1BC072
S11350C08C01D0E0C0E0F80181918F016091211A38
S11350D07091221ADB011896ED91FC91199788239F
S11350E031F01995892B79F3DFEFCFEFECCF8AE01C
S11350F01995892B19F08FEF9FEF02C08D2F9C2FEC
S1135100DF91CF911F910F9108950F931F93CF9328
S1135110DF93CDB7DEB72E970FB6F894DEBF0FBE80
S1135120CDBF0E891F8986E08C831A8309838FEF94
S11351309FE79E838D83AE01465E5F4F688D798DB8
S1135140CE01019610D0EF81F885E00FF11F108297
S11351502E960FB6F894DEBF0FBECDBFDF91CF9170
S11351601F910F9108952F923F924F925F926F92E9
S11351707F928F929F92AF92BF92CF92DF92EF92E3
S1135180FF920F931F93CF93DF93CDB7DEB72B9787
S11351900FB6F894DEBF0FBECDBF6C017B018A0150
S11351A0FC0117821682838181FFBFC1CE01019663
S11351B03C01F6019381F70193FD859193FF819161
S11351C07F01882309F4ADC1853239F493FD8591BB
S11351D093FF81917F01853221F4B60190E0D6D10D
S11351E0E8CF912C212C312CFFE1F315D8F08B3230
S11351F079F038F4803279F08332A1F4232D2061E0
S11352001DC08D3261F0803369F4232D216016C0F6
S1135210832D8260382EE32DE4603E2E2AC0F32DC8
S1135220F8601DC037FC2DC020ED280F2A3040F057
S11352308E32B9F436FC75C1232D2064322E19C088
S113524036FE06C08AE0989E200D1124922E11C0CD
S1135250EAE02E9E200D1124222EF32DF0623F2E23
S113526008C08C3621F4832D8068382E02C088361D
S113527041F4F70193FD859193FF81917F018111A1
S1135280B3CF982F9F7D9554933028F40C5F1F4F14
S11352909FE399830DC0833631F0833771F08335F2
S11352A009F055C020C0F801808189830E5F1F4F2B
S11352B088248394912C530112C02801F2E04F0EEC
S11352C0511CF801A080B18036FE03C0692D70E046
S11352D002C06FEF7FEFC5014ED14C018201F32D67
S11352E0FF773F2E15C0280122E0420E511CF80121
S11352F0A080B18036FE03C0692D70E002C06FEF5C
S11353007FEFC5012DD14C01F32DF0683F2E8201B2
S113531033FC19C0822D90E088169906A0F4B601DA
S113532080E290E033D12A94F5CFF50137FC8591E2
S113533037FE81915F01B60190E028D121102A94B3
S113534021E0821A91088114910479F7E1C084362E
S113535011F0893639F5F80137FE07C06081718193
S1135360828193810C5F1F4F08C060817181072E79
S1135370000C880B990B0E5F1F4FF32DFF763F2E09
S113538097FF09C090958095709561957F4F8F4FD9
S11353909F4FF0683F2E2AE030E0A30133D1882EDE
S11353A0861844C0853731F4232D2F7EB22E2AE08F
S11353B030E025C0932D997FB92E8F36C1F018F4B3
S11353C0883579F0AEC0803719F0883721F0A9C04C
S11353D0E92FE061BE2EB4FE0DC0FB2DF460BF2E9C
S11353E009C034FE0AC0292F2660B22E06C028E068
S11353F030E005C020E130E002C020E132E0F801F5
S1135400B7FE07C060817181828193810C5F1F4F59
S113541006C06081718180E090E00E5F1F4FA301A0
S1135420F1D0882E8618FB2DFF773F2E36FE0DC057
S1135430232D2E7FA22E891458F434FE0BC032FC87
S113544009C0832D8E7EA82E05C0B82CA32C03C0C2
S1135450B82C01C0B92CA4FE0FC0FE01E80DF11D4B
S11354608081803321F49A2D997EA92E09C0A2FE51
S113547006C0B394B39404C08A2D867809F0B3941B
S1135480A3FC10C0A0FE06C0B21480F4280C922C19
S11354909B180DC0B21458F4B60180E290E076D0A7
S11354A0B394F8CFB21418F42B1802C0982C212C02
S11354B0A4FE0FC0B60180E390E068D0A2FE16C03F
S11354C0A1FC03C088E790E002C088E590E0B60143
S11354D00CC08A2D867851F0A1FE02C08BE201C077
S11354E080E2A7FC8DE2B60190E050D0891430F43C
S11354F0B60180E390E04AD09A94F8CF8A94F301FD
S1135500E80DF11D8081B60190E040D08110F6CF06
S1135510222009F44ECEB60180E290E037D02A94DE
S1135520F7CFF6018681978102C08FEF9FEF2B960C
S11355300FB6F894DEBF0FBECDBFDF91CF911F91A0
S11355400F91FF90EF90DF90CF90BF90AF909F901E
S11355508F907F906F905F904F903F902F90089521
S1135560FC010590615070400110D8F7809590952A
S11355708E0F9F1F0895FC0161507040019001102F
S1135580D8F7809590958E0F9F1F08950F931F93C2
S1135590CF93DF93FB01238121FD03C08FEF9FEFA6
S11355A02CC022FF16C046815781248135814217C1
S11355B0530744F4A081B1819D012F5F3F4F318394
S11355C020838C93268137812F5F3F4F3783268337
S11355D014C08B01EC01FB010084F185E02D1995C9
S11355E0892BE1F6D80116968D919C911797019617
S11355F017969C938E931697CE01DF91CF911F91AE
S11356000F910895FA01AA27283051F1203181F130
S1135610E8946F936E7F6E5F7F4F8F4F9F4FAF4FB6
S1135620B1E03ED0B4E03CD0670F781F891F9A1FC9
S1135630A11D680F791F8A1F911DA11D6A0F711D7D
S1135640811D911DA11D20D009F468943F912AE089
S1135650269F11243019305D3193DEF6CF01089571
S1135660462F4770405D4193B3E00FD0C9F7F6CFA2
S1135670462F4F70405D4A3318F0495D31FD40526A
S1135680419302D0A9F7EACFB4E0A6959795879500
S113569077956795BA95C9F70097610571050895DF
S11356A09B01AC010A2E069457954795379527958B
S11356B0BA95C9F7620F731F841F951FA01D089523
S10756C0F894FFCF88
S11356C40000251A200000400040C600CE00D60089
S11356D436010000000300000000F122DC22000077
S11356E4F8A027BE33E034C1332042C43360E5AEAE
S11356F433A0F2B133E0FFB433200DB833601ABBE6
S113570433FF0186000000000079FF0179A0000046
S11357140000E6FF0179000000000086FF01870015
S11357240000000078FF01880000000000004172BE
S11357346475696E6F206D6561737572656D656EF0
S1135744742074616B696E672066726F6D20736573
S11357546E736F722077656E742077726F6E672133
S11357640041726475696E6F206D6561737572654D
S11357746D656E7420434F323A2000257325690AFF
S113578400434F3248616E645461736B0046616335
S1135794746F72795265736574203E25733C0A00F4
S11357A4436F6E66696775726520746F204555385A
S11357B43638203E25733C0A004765742048574513
S11357C45549203E25733C3A2025730A00536574D9
S11357D4204465764555493A202573203E25733C7B
S11357E40A0046434433454545393336434130443E
S11357F44330463036303841393242443042323410
S1135804444400433736333732314645314131431A
S113581443433500536574204F5441412049646522
S11358246E74697479206170704555493A25732002
S11358346170704B45593A25732064657645554922
S11358443A2573203E25733C0A0053617665206D26
S11358546163203E25733C0A0053657420416461EE
S11358647074697665204461746120526174653A88
S1135874204F4E203E25733C0A0053657420526524
S11358846365697665722044656C61793A202564A0
S1135894206D73203E25733C0A004A6F696E204EC6
S11358A46574776F726B2054726965734C656674A2
S11358B43A2564203E25733C0A0055706C6F61647C
S11358C4204D657373616765203E25733C0A004C63
S11358D45248616E640049444C4500546D7220532F
S11358E476630048756D54656D705461736B00255F
S11358F40041726475696E6F2068756D69646974BA
S113590479206C6576656C3A2000257325692573C6
S11359140A00430041726475696E6F2074656D708A
S113592465726174757265203A2000536F6D6574F5
S113593468696E672077656E742077726F6E67206E
S11359447769746820484948383132302077616B6C
S11359546575702063616C6C212052657475726E78
S11359642076616C7565207761733A2000536F6DFE
S1135974657468696E672077656E742077726F6EDC
S11359846720776974682048494838313230204D9B
S11359946561737572652063616C6C212052657452
S11359A475726E2076616C7565207761733A200098
S11359B450726F6772616D205374617274656421EF
S11359C4210048414C5F4C4544007379732072654F
S11359D4736574006D6163207061757365006D6136
S11359E46320726573756D650073797320666163F2
S11359F4746F727952455345540073797320676503
S1135A0474206877657569006D6163206765742027
S1135A1467776E62006D616320736574206C696ED0
S1135A246B63686B202564006D6163207365742067
S1135A34646576657569006D6163207365742061BE
S1135A447070657569006D6163207365742061709D
S1135A54706B6579006D616320736574206E776B78
S1135A64736B6579006D6163207365742061707074
S1135A74736B6579006D6163207365742064657666
S1135A8461646472006D61632073617665006D61A5
S1135A9463206A6F696E00756E636E66006D616380
S1135AA4207478202573202564202573006F66668E
S1135AB4006D61632073657420616472006D6163B9
S1135AC42067657420616472006D6163207365747A
S1135AD4206472202564006D61632067657420640A
S1135AE472006D61632073657420727864656C61FF
S1135AF47931202564006D616320736574206172BB
S1135B04202573006D61632067657420617200331E
S1135B1420383639353235303030006D61632073C6
S1135B24657420727832006D616320736574206338
S1135B346820646379636C652025642037393900EF
S1135B446D616320736574206368206672657120D7
S1135B54256420256C75006D61632073657420636E
S1135B646820647272616E67652025642030203772
S1135B74006D6163207365742063682073746174B9
S1135B847573202564206F6E006D616320736574E2
S1135B94207077726964782031006D6163207365C5
S1135BA47420726574782037006F746161006162D7
S1135BB470004B4559535F4E4F545F494E4954004E
S1135BC44E4F5F465245455F43480053494C454E4A
S1135BD4540042555359004D41435F504155534578
S1135BE4440044454E4945440041434345505445CB
S1135BF44400494E56414C49445F504152414D0082
S1135C044E4F545F4A4F494E454400494E56414C09
S1135C1449445F444154415F4C454E004652414D12
S1135C24455F434F554E5445525F4552525F52456A
S1135C344A4F494E5F4E4545444544004D41435FF8
S1135C4454585F4F4B004D41435F5258004D4143FC
S1135C545F4552524F5200554E4B4E4F574E00E93A
S1135C6406EE0600830701910702F2060300070407
S1135C740B07051207061707072207082907093225
S1135C84070A40070B4B070C5C070D7C070E8607BD
S1095C940F8D07109707B5
S9030000FC
